{"project/contracts/Web3VenmoShield.sol":{"Web3VenmoShield":{"abi":[{"inputs":[{"internalType":"address","name":"_unlinkPool","type":"address"}],"stateMutability":"nonpayable","type":"constructor"},{"anonymous":false,"inputs":[{"indexed":true,"internalType":"address","name":"user","type":"address"},{"indexed":true,"internalType":"address","name":"token","type":"address"},{"indexed":false,"internalType":"uint256","name":"amount","type":"uint256"}],"name":"Deposited","type":"event"},{"anonymous":false,"inputs":[{"indexed":true,"internalType":"address","name":"previousOwner","type":"address"},{"indexed":true,"internalType":"address","name":"newOwner","type":"address"}],"name":"OwnerTransferred","type":"event"},{"anonymous":false,"inputs":[{"indexed":true,"internalType":"address","name":"sender","type":"address"},{"indexed":true,"internalType":"address","name":"receiver","type":"address"},{"indexed":false,"internalType":"string","name":"memo","type":"string"}],"name":"SocialPayment","type":"event"},{"anonymous":false,"inputs":[{"indexed":true,"internalType":"address","name":"user","type":"address"},{"indexed":true,"internalType":"address","name":"token","type":"address"},{"indexed":true,"internalType":"address","name":"recipient","type":"address"},{"indexed":false,"internalType":"uint256","name":"amount","type":"uint256"}],"name":"Withdrawn","type":"event"},{"inputs":[{"internalType":"address","name":"token","type":"address"},{"internalType":"address","name":"user","type":"address"}],"name":"balanceOf","outputs":[{"internalType":"uint256","name":"","type":"uint256"}],"stateMutability":"view","type":"function"},{"inputs":[],"name":"owner","outputs":[{"internalType":"address","name":"","type":"address"}],"stateMutability":"view","type":"function"},{"inputs":[{"internalType":"address","name":"token","type":"address"},{"internalType":"uint256","name":"amount","type":"uint256"},{"internalType":"address","name":"receiver","type":"address"},{"internalType":"string","name":"memo","type":"string"}],"name":"shieldAndPay","outputs":[],"stateMutability":"nonpayable","type":"function"},{"inputs":[{"internalType":"address","name":"token","type":"address"}],"name":"totalShielded","outputs":[{"internalType":"uint256","name":"","type":"uint256"}],"stateMutability":"view","type":"function"},{"inputs":[{"internalType":"address","name":"newOwner","type":"address"}],"name":"transferOwnership","outputs":[],"stateMutability":"nonpayable","type":"function"},{"inputs":[],"name":"unlinkPool","outputs":[{"internalType":"contract IUnlinkPool","name":"","type":"address"}],"stateMutability":"view","type":"function"},{"inputs":[{"internalType":"address","name":"user","type":"address"},{"internalType":"address","name":"token","type":"address"},{"internalType":"uint256","name":"amount","type":"uint256"},{"internalType":"address","name":"receiver","type":"address"},{"internalType":"string","name":"memo","type":"string"}],"name":"unshieldAndPay","outputs":[],"stateMutability":"nonpayable","type":"function"},{"inputs":[{"internalType":"address","name":"","type":"address"},{"internalType":"address","name":"","type":"address"}],"name":"userBalances","outputs":[{"internalType":"uint256","name":"","type":"uint256"}],"stateMutability":"view","type":"function"}],"evm":{"bytecode":{"linkReferences":{},"object":"60a060405234801561000f575f5ffd5b50604051610aa9380380610aa983398101604081905261002e91610050565b6001600160a01b03166080525f80546001600160a01b0319163317905561007d565b5f60208284031215610060575f5ffd5b81516001600160a01b0381168114610076575f5ffd5b9392505050565b6080516109f96100b05f395f818160f301528181610229015281816102c901528181610412015261068d01526109f95ff3fe608060405234801561000f575f5ffd5b5060043610610085575f3560e01c8063adb5198011610058578063adb5198014610115578063f2fde38b1461013f578063f7888aec14610152578063ff2f18911461018a575f5ffd5b80635b13b139146100895780636d7f26851461009e5780638da5cb5b146100c457806398de552e146100ee575b5f5ffd5b61009c6100973660046107f0565b61019d565b005b6100b16100ac36600461085a565b6103eb565b6040519081526020015b60405180910390f35b5f546100d6906001600160a01b031681565b6040516001600160a01b0390911681526020016100bb565b6100d67f000000000000000000000000000000000000000000000000000000000000000081565b6100b161012336600461087a565b600160209081525f928352604080842090915290825290205481565b61009c61014d36600461085a565b610483565b6100b161016036600461087a565b6001600160a01b039182165f90815260016020908152604080832093909416825291909152205490565b61009c6101983660046108ab565b61056b565b6040516323b872dd60e01b8152336004820152306024820152604481018590526001600160a01b038616906323b872dd906064016020604051808303815f875af11580156101ed573d5f5f3e3d5ffd5b505050506040513d601f19601f820116820180604052508101906102119190610925565b5060405163095ea7b360e01b81526001600160a01b037f0000000000000000000000000000000000000000000000000000000000000000811660048301526024820186905286169063095ea7b3906044016020604051808303815f875af115801561027e573d5f5f3e3d5ffd5b505050506040513d601f19601f820116820180604052508101906102a29190610925565b506040516311f9fbc960e21b81526001600160a01b038681166004830152602482018690527f000000000000000000000000000000000000000000000000000000000000000016906347e7ef24906044015f604051808303815f87803b15801561030a575f5ffd5b505af115801561031c573d5f5f3e3d5ffd5b505050506001600160a01b0385165f90815260016020908152604080832033845290915281208054869290610352908490610958565b90915550506040518481526001600160a01b0386169033907f8752a472e571a816aea92eec8dae9baf628e840f4929fbcc2d155e6233ff68a79060200160405180910390a3826001600160a01b0316336001600160a01b03167f56f89973641d19061c3bf2794a1c6babceaf236aef2d5fea662c1c9406c1c12884846040516103dc92919061096b565b60405180910390a35050505050565b604051633de222bb60e21b81526001600160a01b0382811660048301523060248301525f917f00000000000000000000000000000000000000000000000000000000000000009091169063f7888aec90604401602060405180830381865afa158015610459573d5f5f3e3d5ffd5b505050506040513d601f19601f8201168201806040525081019061047d9190610999565b92915050565b5f546001600160a01b031633146104cd5760405162461bcd60e51b81526020600482015260096024820152682737ba1037bbb732b960b91b60448201526064015b60405180910390fd5b6001600160a01b0381166105125760405162461bcd60e51b815260206004820152600c60248201526b5a65726f206164647265737360a01b60448201526064016104c4565b5f80546040516001600160a01b03808516939216917f8934ce4adea8d9ce0d714d2c22b86790e41b7731c84b926fbbdc1d40ff6533c991a35f80546001600160a01b0319166001600160a01b0392909216919091179055565b5f546001600160a01b031633146105b05760405162461bcd60e51b81526020600482015260096024820152682737ba1037bbb732b960b91b60448201526064016104c4565b6001600160a01b038086165f908152600160209081526040808320938a16835292905220548411156106245760405162461bcd60e51b815260206004820152601960248201527f496e73756666696369656e7420757365722062616c616e63650000000000000060448201526064016104c4565b6001600160a01b038086165f908152600160209081526040808320938a168352929052908120805486929061065a9084906109b0565b9091555050604051631a4ca37b60e21b81526001600160a01b0386811660048301526024820186905284811660448301527f000000000000000000000000000000000000000000000000000000000000000016906369328dec906064015f604051808303815f87803b1580156106ce575f5ffd5b505af11580156106e0573d5f5f3e3d5ffd5b50505050826001600160a01b0316856001600160a01b0316876001600160a01b03167fa4195c37c2947bbe89165f03e320b6903116f0b10d8cfdb522330f7ce6f9fa248760405161073391815260200190565b60405180910390a4826001600160a01b0316866001600160a01b03167f56f89973641d19061c3bf2794a1c6babceaf236aef2d5fea662c1c9406c1c128848460405161078092919061096b565b60405180910390a3505050505050565b80356001600160a01b03811681146107a6575f5ffd5b919050565b5f5f83601f8401126107bb575f5ffd5b50813567ffffffffffffffff8111156107d2575f5ffd5b6020830191508360208285010111156107e9575f5ffd5b9250929050565b5f5f5f5f5f60808688031215610804575f5ffd5b61080d86610790565b94506020860135935061082260408701610790565b9250606086013567ffffffffffffffff81111561083d575f5ffd5b610849888289016107ab565b969995985093965092949392505050565b5f6020828403121561086a575f5ffd5b61087382610790565b9392505050565b5f5f6040838503121561088b575f5ffd5b61089483610790565b91506108a260208401610790565b90509250929050565b5f5f5f5f5f5f60a087890312156108c0575f5ffd5b6108c987610790565b95506108d760208801610790565b9450604087013593506108ec60608801610790565b9250608087013567ffffffffffffffff811115610907575f5ffd5b61091389828a016107ab565b979a9699509497509295939492505050565b5f60208284031215610935575f5ffd5b81518015158114610873575f5ffd5b634e487b7160e01b5f52601160045260245ffd5b8082018082111561047d5761047d610944565b60208152816020820152818360408301375f818301604090810191909152601f909201601f19160101919050565b5f602082840312156109a9575f5ffd5b5051919050565b8181038181111561047d5761047d61094456fea2646970667358221220b67c2f94ca3ccd994503da178df92a39d562e6f48dd286a9755894a90fe0e64c64736f6c634300081c0033","opcodes":"PUSH1 0xA0 PUSH1 0x40 MSTORE CALLVALUE DUP1 ISZERO PUSH2 0xF JUMPI PUSH0 PUSH0 REVERT JUMPDEST POP PUSH1 0x40 MLOAD PUSH2 0xAA9 CODESIZE SUB DUP1 PUSH2 0xAA9 DUP4 CODECOPY DUP2 ADD PUSH1 0x40 DUP2 SWAP1 MSTORE PUSH2 0x2E SWAP2 PUSH2 0x50 JUMP JUMPDEST PUSH1 0x1 PUSH1 0x1 PUSH1 0xA0 SHL SUB AND PUSH1 0x80 MSTORE PUSH0 DUP1 SLOAD PUSH1 0x1 PUSH1 0x1 PUSH1 0xA0 SHL SUB NOT AND CALLER OR SWAP1 SSTORE PUSH2 0x7D JUMP JUMPDEST PUSH0 PUSH1 0x20 DUP3 DUP5 SUB SLT ISZERO PUSH2 0x60 JUMPI PUSH0 PUSH0 REVERT JUMPDEST DUP2 MLOAD PUSH1 0x1 PUSH1 0x1 PUSH1 0xA0 SHL SUB DUP2 AND DUP2 EQ PUSH2 0x76 JUMPI PUSH0 PUSH0 REVERT JUMPDEST SWAP4 SWAP3 POP POP POP JUMP JUMPDEST PUSH1 0x80 MLOAD PUSH2 0x9F9 PUSH2 0xB0 PUSH0 CODECOPY PUSH0 DUP2 DUP2 PUSH1 0xF3 ADD MSTORE DUP2 DUP2 PUSH2 0x229 ADD MSTORE DUP2 DUP2 PUSH2 0x2C9 ADD MSTORE DUP2 DUP2 PUSH2 0x412 ADD MSTORE PUSH2 0x68D ADD MSTORE PUSH2 0x9F9 PUSH0 RETURN INVALID PUSH1 0x80 PUSH1 0x40 MSTORE CALLVALUE DUP1 ISZERO PUSH2 0xF JUMPI PUSH0 PUSH0 REVERT JUMPDEST POP PUSH1 0x4 CALLDATASIZE LT PUSH2 0x85 JUMPI PUSH0 CALLDATALOAD PUSH1 0xE0 SHR DUP1 PUSH4 0xADB51980 GT PUSH2 0x58 JUMPI DUP1 PUSH4 0xADB51980 EQ PUSH2 0x115 JUMPI DUP1 PUSH4 0xF2FDE38B EQ PUSH2 0x13F JUMPI DUP1 PUSH4 0xF7888AEC EQ PUSH2 0x152 JUMPI DUP1 PUSH4 0xFF2F1891 EQ PUSH2 0x18A JUMPI PUSH0 PUSH0 REVERT JUMPDEST DUP1 PUSH4 0x5B13B139 EQ PUSH2 0x89 JUMPI DUP1 PUSH4 0x6D7F2685 EQ PUSH2 0x9E JUMPI DUP1 PUSH4 0x8DA5CB5B EQ PUSH2 0xC4 JUMPI DUP1 PUSH4 0x98DE552E EQ PUSH2 0xEE JUMPI JUMPDEST PUSH0 PUSH0 REVERT JUMPDEST PUSH2 0x9C PUSH2 0x97 CALLDATASIZE PUSH1 0x4 PUSH2 0x7F0 JUMP JUMPDEST PUSH2 0x19D JUMP JUMPDEST STOP JUMPDEST PUSH2 0xB1 PUSH2 0xAC CALLDATASIZE PUSH1 0x4 PUSH2 0x85A JUMP JUMPDEST PUSH2 0x3EB JUMP JUMPDEST PUSH1 0x40 MLOAD SWAP1 DUP2 MSTORE PUSH1 0x20 ADD JUMPDEST PUSH1 0x40 MLOAD DUP1 SWAP2 SUB SWAP1 RETURN JUMPDEST PUSH0 SLOAD PUSH2 0xD6 SWAP1 PUSH1 0x1 PUSH1 0x1 PUSH1 0xA0 SHL SUB AND DUP2 JUMP JUMPDEST PUSH1 0x40 MLOAD PUSH1 0x1 PUSH1 0x1 PUSH1 0xA0 SHL SUB SWAP1 SWAP2 AND DUP2 MSTORE PUSH1 0x20 ADD PUSH2 0xBB JUMP JUMPDEST PUSH2 0xD6 PUSH32 0x0 DUP2 JUMP JUMPDEST PUSH2 0xB1 PUSH2 0x123 CALLDATASIZE PUSH1 0x4 PUSH2 0x87A JUMP JUMPDEST PUSH1 0x1 PUSH1 0x20 SWAP1 DUP2 MSTORE PUSH0 SWAP3 DUP4 MSTORE PUSH1 0x40 DUP1 DUP5 KECCAK256 SWAP1 SWAP2 MSTORE SWAP1 DUP3 MSTORE SWAP1 KECCAK256 SLOAD DUP2 JUMP JUMPDEST PUSH2 0x9C PUSH2 0x14D CALLDATASIZE PUSH1 0x4 PUSH2 0x85A JUMP JUMPDEST PUSH2 0x483 JUMP JUMPDEST PUSH2 0xB1 PUSH2 0x160 CALLDATASIZE PUSH1 0x4 PUSH2 0x87A JUMP JUMPDEST PUSH1 0x1 PUSH1 0x1 PUSH1 0xA0 SHL SUB SWAP2 DUP3 AND PUSH0 SWAP1 DUP2 MSTORE PUSH1 0x1 PUSH1 0x20 SWAP1 DUP2 MSTORE PUSH1 0x40 DUP1 DUP4 KECCAK256 SWAP4 SWAP1 SWAP5 AND DUP3 MSTORE SWAP2 SWAP1 SWAP2 MSTORE KECCAK256 SLOAD SWAP1 JUMP JUMPDEST PUSH2 0x9C PUSH2 0x198 CALLDATASIZE PUSH1 0x4 PUSH2 0x8AB JUMP JUMPDEST PUSH2 0x56B JUMP JUMPDEST PUSH1 0x40 MLOAD PUSH4 0x23B872DD PUSH1 0xE0 SHL DUP2 MSTORE CALLER PUSH1 0x4 DUP3 ADD MSTORE ADDRESS PUSH1 0x24 DUP3 ADD MSTORE PUSH1 0x44 DUP2 ADD DUP6 SWAP1 MSTORE PUSH1 0x1 PUSH1 0x1 PUSH1 0xA0 SHL SUB DUP7 AND SWAP1 PUSH4 0x23B872DD SWAP1 PUSH1 0x64 ADD PUSH1 0x20 PUSH1 0x40 MLOAD DUP1 DUP4 SUB DUP2 PUSH0 DUP8 GAS CALL ISZERO DUP1 ISZERO PUSH2 0x1ED JUMPI RETURNDATASIZE PUSH0 PUSH0 RETURNDATACOPY RETURNDATASIZE PUSH0 REVERT JUMPDEST POP POP POP POP PUSH1 0x40 MLOAD RETURNDATASIZE PUSH1 0x1F NOT PUSH1 0x1F DUP3 ADD AND DUP3 ADD DUP1 PUSH1 0x40 MSTORE POP DUP2 ADD SWAP1 PUSH2 0x211 SWAP2 SWAP1 PUSH2 0x925 JUMP JUMPDEST POP PUSH1 0x40 MLOAD PUSH4 0x95EA7B3 PUSH1 0xE0 SHL DUP2 MSTORE PUSH1 0x1 PUSH1 0x1 PUSH1 0xA0 SHL SUB PUSH32 0x0 DUP2 AND PUSH1 0x4 DUP4 ADD MSTORE PUSH1 0x24 DUP3 ADD DUP7 SWAP1 MSTORE DUP7 AND SWAP1 PUSH4 0x95EA7B3 SWAP1 PUSH1 0x44 ADD PUSH1 0x20 PUSH1 0x40 MLOAD DUP1 DUP4 SUB DUP2 PUSH0 DUP8 GAS CALL ISZERO DUP1 ISZERO PUSH2 0x27E JUMPI RETURNDATASIZE PUSH0 PUSH0 RETURNDATACOPY RETURNDATASIZE PUSH0 REVERT JUMPDEST POP POP POP POP PUSH1 0x40 MLOAD RETURNDATASIZE PUSH1 0x1F NOT PUSH1 0x1F DUP3 ADD AND DUP3 ADD DUP1 PUSH1 0x40 MSTORE POP DUP2 ADD SWAP1 PUSH2 0x2A2 SWAP2 SWAP1 PUSH2 0x925 JUMP JUMPDEST POP PUSH1 0x40 MLOAD PUSH4 0x11F9FBC9 PUSH1 0xE2 SHL DUP2 MSTORE PUSH1 0x1 PUSH1 0x1 PUSH1 0xA0 SHL SUB DUP7 DUP2 AND PUSH1 0x4 DUP4 ADD MSTORE PUSH1 0x24 DUP3 ADD DUP7 SWAP1 MSTORE PUSH32 0x0 AND SWAP1 PUSH4 0x47E7EF24 SWAP1 PUSH1 0x44 ADD PUSH0 PUSH1 0x40 MLOAD DUP1 DUP4 SUB DUP2 PUSH0 DUP8 DUP1 EXTCODESIZE ISZERO DUP1 ISZERO PUSH2 0x30A JUMPI PUSH0 PUSH0 REVERT JUMPDEST POP GAS CALL ISZERO DUP1 ISZERO PUSH2 0x31C JUMPI RETURNDATASIZE PUSH0 PUSH0 RETURNDATACOPY RETURNDATASIZE PUSH0 REVERT JUMPDEST POP POP POP POP PUSH1 0x1 PUSH1 0x1 PUSH1 0xA0 SHL SUB DUP6 AND PUSH0 SWAP1 DUP2 MSTORE PUSH1 0x1 PUSH1 0x20 SWAP1 DUP2 MSTORE PUSH1 0x40 DUP1 DUP4 KECCAK256 CALLER DUP5 MSTORE SWAP1 SWAP2 MSTORE DUP2 KECCAK256 DUP1 SLOAD DUP7 SWAP3 SWAP1 PUSH2 0x352 SWAP1 DUP5 SWAP1 PUSH2 0x958 JUMP JUMPDEST SWAP1 SWAP2 SSTORE POP POP PUSH1 0x40 MLOAD DUP5 DUP2 MSTORE PUSH1 0x1 PUSH1 0x1 PUSH1 0xA0 SHL SUB DUP7 AND SWAP1 CALLER SWAP1 PUSH32 0x8752A472E571A816AEA92EEC8DAE9BAF628E840F4929FBCC2D155E6233FF68A7 SWAP1 PUSH1 0x20 ADD PUSH1 0x40 MLOAD DUP1 SWAP2 SUB SWAP1 LOG3 DUP3 PUSH1 0x1 PUSH1 0x1 PUSH1 0xA0 SHL SUB AND CALLER PUSH1 0x1 PUSH1 0x1 PUSH1 0xA0 SHL SUB AND PUSH32 0x56F89973641D19061C3BF2794A1C6BABCEAF236AEF2D5FEA662C1C9406C1C128 DUP5 DUP5 PUSH1 0x40 MLOAD PUSH2 0x3DC SWAP3 SWAP2 SWAP1 PUSH2 0x96B JUMP JUMPDEST PUSH1 0x40 MLOAD DUP1 SWAP2 SUB SWAP1 LOG3 POP POP POP POP POP JUMP JUMPDEST PUSH1 0x40 MLOAD PUSH4 0x3DE222BB PUSH1 0xE2 SHL DUP2 MSTORE PUSH1 0x1 PUSH1 0x1 PUSH1 0xA0 SHL SUB DUP3 DUP2 AND PUSH1 0x4 DUP4 ADD MSTORE ADDRESS PUSH1 0x24 DUP4 ADD MSTORE PUSH0 SWAP2 PUSH32 0x0 SWAP1 SWAP2 AND SWAP1 PUSH4 0xF7888AEC SWAP1 PUSH1 0x44 ADD PUSH1 0x20 PUSH1 0x40 MLOAD DUP1 DUP4 SUB DUP2 DUP7 GAS STATICCALL ISZERO DUP1 ISZERO PUSH2 0x459 JUMPI RETURNDATASIZE PUSH0 PUSH0 RETURNDATACOPY RETURNDATASIZE PUSH0 REVERT JUMPDEST POP POP POP POP PUSH1 0x40 MLOAD RETURNDATASIZE PUSH1 0x1F NOT PUSH1 0x1F DUP3 ADD AND DUP3 ADD DUP1 PUSH1 0x40 MSTORE POP DUP2 ADD SWAP1 PUSH2 0x47D SWAP2 SWAP1 PUSH2 0x999 JUMP JUMPDEST SWAP3 SWAP2 POP POP JUMP JUMPDEST PUSH0 SLOAD PUSH1 0x1 PUSH1 0x1 PUSH1 0xA0 SHL SUB AND CALLER EQ PUSH2 0x4CD JUMPI PUSH1 0x40 MLOAD PUSH3 0x461BCD PUSH1 0xE5 SHL DUP2 MSTORE PUSH1 0x20 PUSH1 0x4 DUP3 ADD MSTORE PUSH1 0x9 PUSH1 0x24 DUP3 ADD MSTORE PUSH9 0x2737BA1037BBB732B9 PUSH1 0xB9 SHL PUSH1 0x44 DUP3 ADD MSTORE PUSH1 0x64 ADD JUMPDEST PUSH1 0x40 MLOAD DUP1 SWAP2 SUB SWAP1 REVERT JUMPDEST PUSH1 0x1 PUSH1 0x1 PUSH1 0xA0 SHL SUB DUP2 AND PUSH2 0x512 JUMPI PUSH1 0x40 MLOAD PUSH3 0x461BCD PUSH1 0xE5 SHL DUP2 MSTORE PUSH1 0x20 PUSH1 0x4 DUP3 ADD MSTORE PUSH1 0xC PUSH1 0x24 DUP3 ADD MSTORE PUSH12 0x5A65726F2061646472657373 PUSH1 0xA0 SHL PUSH1 0x44 DUP3 ADD MSTORE PUSH1 0x64 ADD PUSH2 0x4C4 JUMP JUMPDEST PUSH0 DUP1 SLOAD PUSH1 0x40 MLOAD PUSH1 0x1 PUSH1 0x1 PUSH1 0xA0 SHL SUB DUP1 DUP6 AND SWAP4 SWAP3 AND SWAP2 PUSH32 0x8934CE4ADEA8D9CE0D714D2C22B86790E41B7731C84B926FBBDC1D40FF6533C9 SWAP2 LOG3 PUSH0 DUP1 SLOAD PUSH1 0x1 PUSH1 0x1 PUSH1 0xA0 SHL SUB NOT AND PUSH1 0x1 PUSH1 0x1 PUSH1 0xA0 SHL SUB SWAP3 SWAP1 SWAP3 AND SWAP2 SWAP1 SWAP2 OR SWAP1 SSTORE JUMP JUMPDEST PUSH0 SLOAD PUSH1 0x1 PUSH1 0x1 PUSH1 0xA0 SHL SUB AND CALLER EQ PUSH2 0x5B0 JUMPI PUSH1 0x40 MLOAD PUSH3 0x461BCD PUSH1 0xE5 SHL DUP2 MSTORE PUSH1 0x20 PUSH1 0x4 DUP3 ADD MSTORE PUSH1 0x9 PUSH1 0x24 DUP3 ADD MSTORE PUSH9 0x2737BA1037BBB732B9 PUSH1 0xB9 SHL PUSH1 0x44 DUP3 ADD MSTORE PUSH1 0x64 ADD PUSH2 0x4C4 JUMP JUMPDEST PUSH1 0x1 PUSH1 0x1 PUSH1 0xA0 SHL SUB DUP1 DUP7 AND PUSH0 SWAP1 DUP2 MSTORE PUSH1 0x1 PUSH1 0x20 SWAP1 DUP2 MSTORE PUSH1 0x40 DUP1 DUP4 KECCAK256 SWAP4 DUP11 AND DUP4 MSTORE SWAP3 SWAP1 MSTORE KECCAK256 SLOAD DUP5 GT ISZERO PUSH2 0x624 JUMPI PUSH1 0x40 MLOAD PUSH3 0x461BCD PUSH1 0xE5 SHL DUP2 MSTORE PUSH1 0x20 PUSH1 0x4 DUP3 ADD MSTORE PUSH1 0x19 PUSH1 0x24 DUP3 ADD MSTORE PUSH32 0x496E73756666696369656E7420757365722062616C616E636500000000000000 PUSH1 0x44 DUP3 ADD MSTORE PUSH1 0x64 ADD PUSH2 0x4C4 JUMP JUMPDEST PUSH1 0x1 PUSH1 0x1 PUSH1 0xA0 SHL SUB DUP1 DUP7 AND PUSH0 SWAP1 DUP2 MSTORE PUSH1 0x1 PUSH1 0x20 SWAP1 DUP2 MSTORE PUSH1 0x40 DUP1 DUP4 KECCAK256 SWAP4 DUP11 AND DUP4 MSTORE SWAP3 SWAP1 MSTORE SWAP1 DUP2 KECCAK256 DUP1 SLOAD DUP7 SWAP3 SWAP1 PUSH2 0x65A SWAP1 DUP5 SWAP1 PUSH2 0x9B0 JUMP JUMPDEST SWAP1 SWAP2 SSTORE POP POP PUSH1 0x40 MLOAD PUSH4 0x1A4CA37B PUSH1 0xE2 SHL DUP2 MSTORE PUSH1 0x1 PUSH1 0x1 PUSH1 0xA0 SHL SUB DUP7 DUP2 AND PUSH1 0x4 DUP4 ADD MSTORE PUSH1 0x24 DUP3 ADD DUP7 SWAP1 MSTORE DUP5 DUP2 AND PUSH1 0x44 DUP4 ADD MSTORE PUSH32 0x0 AND SWAP1 PUSH4 0x69328DEC SWAP1 PUSH1 0x64 ADD PUSH0 PUSH1 0x40 MLOAD DUP1 DUP4 SUB DUP2 PUSH0 DUP8 DUP1 EXTCODESIZE ISZERO DUP1 ISZERO PUSH2 0x6CE JUMPI PUSH0 PUSH0 REVERT JUMPDEST POP GAS CALL ISZERO DUP1 ISZERO PUSH2 0x6E0 JUMPI RETURNDATASIZE PUSH0 PUSH0 RETURNDATACOPY RETURNDATASIZE PUSH0 REVERT JUMPDEST POP POP POP POP DUP3 PUSH1 0x1 PUSH1 0x1 PUSH1 0xA0 SHL SUB AND DUP6 PUSH1 0x1 PUSH1 0x1 PUSH1 0xA0 SHL SUB AND DUP8 PUSH1 0x1 PUSH1 0x1 PUSH1 0xA0 SHL SUB AND PUSH32 0xA4195C37C2947BBE89165F03E320B6903116F0B10D8CFDB522330F7CE6F9FA24 DUP8 PUSH1 0x40 MLOAD PUSH2 0x733 SWAP2 DUP2 MSTORE PUSH1 0x20 ADD SWAP1 JUMP JUMPDEST PUSH1 0x40 MLOAD DUP1 SWAP2 SUB SWAP1 LOG4 DUP3 PUSH1 0x1 PUSH1 0x1 PUSH1 0xA0 SHL SUB AND DUP7 PUSH1 0x1 PUSH1 0x1 PUSH1 0xA0 SHL SUB AND PUSH32 0x56F89973641D19061C3BF2794A1C6BABCEAF236AEF2D5FEA662C1C9406C1C128 DUP5 DUP5 PUSH1 0x40 MLOAD PUSH2 0x780 SWAP3 SWAP2 SWAP1 PUSH2 0x96B JUMP JUMPDEST PUSH1 0x40 MLOAD DUP1 SWAP2 SUB SWAP1 LOG3 POP POP POP POP POP POP JUMP JUMPDEST DUP1 CALLDATALOAD PUSH1 0x1 PUSH1 0x1 PUSH1 0xA0 SHL SUB DUP2 AND DUP2 EQ PUSH2 0x7A6 JUMPI PUSH0 PUSH0 REVERT JUMPDEST SWAP2 SWAP1 POP JUMP JUMPDEST PUSH0 PUSH0 DUP4 PUSH1 0x1F DUP5 ADD SLT PUSH2 0x7BB JUMPI PUSH0 PUSH0 REVERT JUMPDEST POP DUP2 CALLDATALOAD PUSH8 0xFFFFFFFFFFFFFFFF DUP2 GT ISZERO PUSH2 0x7D2 JUMPI PUSH0 PUSH0 REVERT JUMPDEST PUSH1 0x20 DUP4 ADD SWAP2 POP DUP4 PUSH1 0x20 DUP3 DUP6 ADD ADD GT ISZERO PUSH2 0x7E9 JUMPI PUSH0 PUSH0 REVERT JUMPDEST SWAP3 POP SWAP3 SWAP1 POP JUMP JUMPDEST PUSH0 PUSH0 PUSH0 PUSH0 PUSH0 PUSH1 0x80 DUP7 DUP9 SUB SLT ISZERO PUSH2 0x804 JUMPI PUSH0 PUSH0 REVERT JUMPDEST PUSH2 0x80D DUP7 PUSH2 0x790 JUMP JUMPDEST SWAP5 POP PUSH1 0x20 DUP7 ADD CALLDATALOAD SWAP4 POP PUSH2 0x822 PUSH1 0x40 DUP8 ADD PUSH2 0x790 JUMP JUMPDEST SWAP3 POP PUSH1 0x60 DUP7 ADD CALLDATALOAD PUSH8 0xFFFFFFFFFFFFFFFF DUP2 GT ISZERO PUSH2 0x83D JUMPI PUSH0 PUSH0 REVERT JUMPDEST PUSH2 0x849 DUP9 DUP3 DUP10 ADD PUSH2 0x7AB JUMP JUMPDEST SWAP7 SWAP10 SWAP6 SWAP9 POP SWAP4 SWAP7 POP SWAP3 SWAP5 SWAP4 SWAP3 POP POP POP JUMP JUMPDEST PUSH0 PUSH1 0x20 DUP3 DUP5 SUB SLT ISZERO PUSH2 0x86A JUMPI PUSH0 PUSH0 REVERT JUMPDEST PUSH2 0x873 DUP3 PUSH2 0x790 JUMP JUMPDEST SWAP4 SWAP3 POP POP POP JUMP JUMPDEST PUSH0 PUSH0 PUSH1 0x40 DUP4 DUP6 SUB SLT ISZERO PUSH2 0x88B JUMPI PUSH0 PUSH0 REVERT JUMPDEST PUSH2 0x894 DUP4 PUSH2 0x790 JUMP JUMPDEST SWAP2 POP PUSH2 0x8A2 PUSH1 0x20 DUP5 ADD PUSH2 0x790 JUMP JUMPDEST SWAP1 POP SWAP3 POP SWAP3 SWAP1 POP JUMP JUMPDEST PUSH0 PUSH0 PUSH0 PUSH0 PUSH0 PUSH0 PUSH1 0xA0 DUP8 DUP10 SUB SLT ISZERO PUSH2 0x8C0 JUMPI PUSH0 PUSH0 REVERT JUMPDEST PUSH2 0x8C9 DUP8 PUSH2 0x790 JUMP JUMPDEST SWAP6 POP PUSH2 0x8D7 PUSH1 0x20 DUP9 ADD PUSH2 0x790 JUMP JUMPDEST SWAP5 POP PUSH1 0x40 DUP8 ADD CALLDATALOAD SWAP4 POP PUSH2 0x8EC PUSH1 0x60 DUP9 ADD PUSH2 0x790 JUMP JUMPDEST SWAP3 POP PUSH1 0x80 DUP8 ADD CALLDATALOAD PUSH8 0xFFFFFFFFFFFFFFFF DUP2 GT ISZERO PUSH2 0x907 JUMPI PUSH0 PUSH0 REVERT JUMPDEST PUSH2 0x913 DUP10 DUP3 DUP11 ADD PUSH2 0x7AB JUMP JUMPDEST SWAP8 SWAP11 SWAP7 SWAP10 POP SWAP5 SWAP8 POP SWAP3 SWAP6 SWAP4 SWAP5 SWAP3 POP POP POP JUMP JUMPDEST PUSH0 PUSH1 0x20 DUP3 DUP5 SUB SLT ISZERO PUSH2 0x935 JUMPI PUSH0 PUSH0 REVERT JUMPDEST DUP2 MLOAD DUP1 ISZERO ISZERO DUP2 EQ PUSH2 0x873 JUMPI PUSH0 PUSH0 REVERT JUMPDEST PUSH4 0x4E487B71 PUSH1 0xE0 SHL PUSH0 MSTORE PUSH1 0x11 PUSH1 0x4 MSTORE PUSH1 0x24 PUSH0 REVERT JUMPDEST DUP1 DUP3 ADD DUP1 DUP3 GT ISZERO PUSH2 0x47D JUMPI PUSH2 0x47D PUSH2 0x944 JUMP JUMPDEST PUSH1 0x20 DUP2 MSTORE DUP2 PUSH1 0x20 DUP3 ADD MSTORE DUP2 DUP4 PUSH1 0x40 DUP4 ADD CALLDATACOPY PUSH0 DUP2 DUP4 ADD PUSH1 0x40 SWAP1 DUP2 ADD SWAP2 SWAP1 SWAP2 MSTORE PUSH1 0x1F SWAP1 SWAP3 ADD PUSH1 0x1F NOT AND ADD ADD SWAP2 SWAP1 POP JUMP JUMPDEST PUSH0 PUSH1 0x20 DUP3 DUP5 SUB SLT ISZERO PUSH2 0x9A9 JUMPI PUSH0 PUSH0 REVERT JUMPDEST POP MLOAD SWAP2 SWAP1 POP JUMP JUMPDEST DUP2 DUP2 SUB DUP2 DUP2 GT ISZERO PUSH2 0x47D JUMPI PUSH2 0x47D PUSH2 0x944 JUMP INVALID LOG2 PUSH5 0x6970667358 0x22 SLT KECCAK256 0xB6 PUSH29 0x2F94CA3CCD994503DA178DF92A39D562E6F48DD286A9755894A90FE0E6 0x4C PUSH5 0x736F6C6343 STOP ADDMOD SHR STOP CALLER "},"methodIdentifiers":{"balanceOf(address,address)":"f7888aec","owner()":"8da5cb5b","shieldAndPay(address,uint256,address,string)":"5b13b139","totalShielded(address)":"6d7f2685","transferOwnership(address)":"f2fde38b","unlinkPool()":"98de552e","unshieldAndPay(address,address,uint256,address,string)":"ff2f1891","userBalances(address,address)":"adb51980"}}}}}