{"project/contracts/Web3VenmoShield.sol":{"Web3VenmoShield":{"abi":[{"inputs":[{"internalType":"address","name":"_unlinkPool","type":"address"}],"stateMutability":"nonpayable","type":"constructor"},{"anonymous":false,"inputs":[{"indexed":true,"internalType":"address","name":"sender","type":"address"},{"indexed":true,"internalType":"address","name":"receiver","type":"address"},{"indexed":false,"internalType":"string","name":"memo","type":"string"}],"name":"SocialPayment","type":"event"},{"inputs":[{"internalType":"address","name":"token","type":"address"},{"internalType":"uint256","name":"amount","type":"uint256"},{"internalType":"address","name":"receiver","type":"address"},{"internalType":"string","name":"memo","type":"string"}],"name":"shieldAndPay","outputs":[],"stateMutability":"nonpayable","type":"function"},{"inputs":[],"name":"unlinkPool","outputs":[{"internalType":"contract IUnlinkPool","name":"","type":"address"}],"stateMutability":"view","type":"function"}],"evm":{"bytecode":{"linkReferences":{},"object":"60a060405234801561000f575f5ffd5b5060405161073a38038061073a833981810160405281019061003191906100c9565b8073ffffffffffffffffffffffffffffffffffffffff1660808173ffffffffffffffffffffffffffffffffffffffff1681525050506100f4565b5f5ffd5b5f73ffffffffffffffffffffffffffffffffffffffff82169050919050565b5f6100988261006f565b9050919050565b6100a88161008e565b81146100b2575f5ffd5b50565b5f815190506100c38161009f565b92915050565b5f602082840312156100de576100dd61006b565b5b5f6100eb848285016100b5565b91505092915050565b60805161062061011a5f395f818161010e0152818161018e015261028401526106205ff3fe608060405234801561000f575f5ffd5b5060043610610034575f3560e01c80635b13b1391461003857806398de552e14610054575b5f5ffd5b610052600480360381019061004d919061039c565b610072565b005b61005c610282565b604051610069919061047b565b60405180910390f35b8473ffffffffffffffffffffffffffffffffffffffff166323b872dd3330876040518463ffffffff1660e01b81526004016100af939291906104b2565b6020604051808303815f875af11580156100cb573d5f5f3e3d5ffd5b505050506040513d601f19601f820116820180604052508101906100ef919061051c565b508473ffffffffffffffffffffffffffffffffffffffff1663095ea7b37f0000000000000000000000000000000000000000000000000000000000000000866040518363ffffffff1660e01b815260040161014b929190610547565b6020604051808303815f875af1158015610167573d5f5f3e3d5ffd5b505050506040513d601f19601f8201168201806040525081019061018b919061051c565b507f000000000000000000000000000000000000000000000000000000000000000073ffffffffffffffffffffffffffffffffffffffff166347e7ef2486866040518363ffffffff1660e01b81526004016101e7929190610547565b5f604051808303815f87803b1580156101fe575f5ffd5b505af1158015610210573d5f5f3e3d5ffd5b505050508273ffffffffffffffffffffffffffffffffffffffff163373ffffffffffffffffffffffffffffffffffffffff167f56f89973641d19061c3bf2794a1c6babceaf236aef2d5fea662c1c9406c1c12884846040516102739291906105c8565b60405180910390a35050505050565b7f000000000000000000000000000000000000000000000000000000000000000081565b5f5ffd5b5f5ffd5b5f73ffffffffffffffffffffffffffffffffffffffff82169050919050565b5f6102d7826102ae565b9050919050565b6102e7816102cd565b81146102f1575f5ffd5b50565b5f81359050610302816102de565b92915050565b5f819050919050565b61031a81610308565b8114610324575f5ffd5b50565b5f8135905061033581610311565b92915050565b5f5ffd5b5f5ffd5b5f5ffd5b5f5f83601f84011261035c5761035b61033b565b5b8235905067ffffffffffffffff8111156103795761037861033f565b5b60208301915083600182028301111561039557610394610343565b5b9250929050565b5f5f5f5f5f608086880312156103b5576103b46102a6565b5b5f6103c2888289016102f4565b95505060206103d388828901610327565b94505060406103e4888289016102f4565b935050606086013567ffffffffffffffff811115610405576104046102aa565b5b61041188828901610347565b92509250509295509295909350565b5f819050919050565b5f61044361043e610439846102ae565b610420565b6102ae565b9050919050565b5f61045482610429565b9050919050565b5f6104658261044a565b9050919050565b6104758161045b565b82525050565b5f60208201905061048e5f83018461046c565b92915050565b61049d816102cd565b82525050565b6104ac81610308565b82525050565b5f6060820190506104c55f830186610494565b6104d26020830185610494565b6104df60408301846104a3565b949350505050565b5f8115159050919050565b6104fb816104e7565b8114610505575f5ffd5b50565b5f81519050610516816104f2565b92915050565b5f60208284031215610531576105306102a6565b5b5f61053e84828501610508565b91505092915050565b5f60408201905061055a5f830185610494565b61056760208301846104a3565b9392505050565b5f82825260208201905092915050565b828183375f83830152505050565b5f601f19601f8301169050919050565b5f6105a7838561056e565b93506105b483858461057e565b6105bd8361058c565b840190509392505050565b5f6020820190508181035f8301526105e181848661059c565b9050939250505056fea264697066735822122095012edc9037f12dd44b614a3593933d9630516e143347f6d22987c74f324f1f64736f6c634300081c0033","opcodes":"PUSH1 0xA0 PUSH1 0x40 MSTORE CALLVALUE DUP1 ISZERO PUSH2 0xF JUMPI PUSH0 PUSH0 REVERT JUMPDEST POP PUSH1 0x40 MLOAD PUSH2 0x73A CODESIZE SUB DUP1 PUSH2 0x73A DUP4 CODECOPY DUP2 DUP2 ADD PUSH1 0x40 MSTORE DUP2 ADD SWAP1 PUSH2 0x31 SWAP2 SWAP1 PUSH2 0xC9 JUMP JUMPDEST DUP1 PUSH20 0xFFFFFFFFFFFFFFFFFFFFFFFFFFFFFFFFFFFFFFFF AND PUSH1 0x80 DUP2 PUSH20 0xFFFFFFFFFFFFFFFFFFFFFFFFFFFFFFFFFFFFFFFF AND DUP2 MSTORE POP POP POP PUSH2 0xF4 JUMP JUMPDEST PUSH0 PUSH0 REVERT JUMPDEST PUSH0 PUSH20 0xFFFFFFFFFFFFFFFFFFFFFFFFFFFFFFFFFFFFFFFF DUP3 AND SWAP1 POP SWAP2 SWAP1 POP JUMP JUMPDEST PUSH0 PUSH2 0x98 DUP3 PUSH2 0x6F JUMP JUMPDEST SWAP1 POP SWAP2 SWAP1 POP JUMP JUMPDEST PUSH2 0xA8 DUP2 PUSH2 0x8E JUMP JUMPDEST DUP2 EQ PUSH2 0xB2 JUMPI PUSH0 PUSH0 REVERT JUMPDEST POP JUMP JUMPDEST PUSH0 DUP2 MLOAD SWAP1 POP PUSH2 0xC3 DUP2 PUSH2 0x9F JUMP JUMPDEST SWAP3 SWAP2 POP POP JUMP JUMPDEST PUSH0 PUSH1 0x20 DUP3 DUP5 SUB SLT ISZERO PUSH2 0xDE JUMPI PUSH2 0xDD PUSH2 0x6B JUMP JUMPDEST JUMPDEST PUSH0 PUSH2 0xEB DUP5 DUP3 DUP6 ADD PUSH2 0xB5 JUMP JUMPDEST SWAP2 POP POP SWAP3 SWAP2 POP POP JUMP JUMPDEST PUSH1 0x80 MLOAD PUSH2 0x620 PUSH2 0x11A PUSH0 CODECOPY PUSH0 DUP2 DUP2 PUSH2 0x10E ADD MSTORE DUP2 DUP2 PUSH2 0x18E ADD MSTORE PUSH2 0x284 ADD MSTORE PUSH2 0x620 PUSH0 RETURN INVALID PUSH1 0x80 PUSH1 0x40 MSTORE CALLVALUE DUP1 ISZERO PUSH2 0xF JUMPI PUSH0 PUSH0 REVERT JUMPDEST POP PUSH1 0x4 CALLDATASIZE LT PUSH2 0x34 JUMPI PUSH0 CALLDATALOAD PUSH1 0xE0 SHR DUP1 PUSH4 0x5B13B139 EQ PUSH2 0x38 JUMPI DUP1 PUSH4 0x98DE552E EQ PUSH2 0x54 JUMPI JUMPDEST PUSH0 PUSH0 REVERT JUMPDEST PUSH2 0x52 PUSH1 0x4 DUP1 CALLDATASIZE SUB DUP2 ADD SWAP1 PUSH2 0x4D SWAP2 SWAP1 PUSH2 0x39C JUMP JUMPDEST PUSH2 0x72 JUMP JUMPDEST STOP JUMPDEST PUSH2 0x5C PUSH2 0x282 JUMP JUMPDEST PUSH1 0x40 MLOAD PUSH2 0x69 SWAP2 SWAP1 PUSH2 0x47B JUMP JUMPDEST PUSH1 0x40 MLOAD DUP1 SWAP2 SUB SWAP1 RETURN JUMPDEST DUP5 PUSH20 0xFFFFFFFFFFFFFFFFFFFFFFFFFFFFFFFFFFFFFFFF AND PUSH4 0x23B872DD CALLER ADDRESS DUP8 PUSH1 0x40 MLOAD DUP5 PUSH4 0xFFFFFFFF AND PUSH1 0xE0 SHL DUP2 MSTORE PUSH1 0x4 ADD PUSH2 0xAF SWAP4 SWAP3 SWAP2 SWAP1 PUSH2 0x4B2 JUMP JUMPDEST PUSH1 0x20 PUSH1 0x40 MLOAD DUP1 DUP4 SUB DUP2 PUSH0 DUP8 GAS CALL ISZERO DUP1 ISZERO PUSH2 0xCB JUMPI RETURNDATASIZE PUSH0 PUSH0 RETURNDATACOPY RETURNDATASIZE PUSH0 REVERT JUMPDEST POP POP POP POP PUSH1 0x40 MLOAD RETURNDATASIZE PUSH1 0x1F NOT PUSH1 0x1F DUP3 ADD AND DUP3 ADD DUP1 PUSH1 0x40 MSTORE POP DUP2 ADD SWAP1 PUSH2 0xEF SWAP2 SWAP1 PUSH2 0x51C JUMP JUMPDEST POP DUP5 PUSH20 0xFFFFFFFFFFFFFFFFFFFFFFFFFFFFFFFFFFFFFFFF AND PUSH4 0x95EA7B3 PUSH32 0x0 DUP7 PUSH1 0x40 MLOAD DUP4 PUSH4 0xFFFFFFFF AND PUSH1 0xE0 SHL DUP2 MSTORE PUSH1 0x4 ADD PUSH2 0x14B SWAP3 SWAP2 SWAP1 PUSH2 0x547 JUMP JUMPDEST PUSH1 0x20 PUSH1 0x40 MLOAD DUP1 DUP4 SUB DUP2 PUSH0 DUP8 GAS CALL ISZERO DUP1 ISZERO PUSH2 0x167 JUMPI RETURNDATASIZE PUSH0 PUSH0 RETURNDATACOPY RETURNDATASIZE PUSH0 REVERT JUMPDEST POP POP POP POP PUSH1 0x40 MLOAD RETURNDATASIZE PUSH1 0x1F NOT PUSH1 0x1F DUP3 ADD AND DUP3 ADD DUP1 PUSH1 0x40 MSTORE POP DUP2 ADD SWAP1 PUSH2 0x18B SWAP2 SWAP1 PUSH2 0x51C JUMP JUMPDEST POP PUSH32 0x0 PUSH20 0xFFFFFFFFFFFFFFFFFFFFFFFFFFFFFFFFFFFFFFFF AND PUSH4 0x47E7EF24 DUP7 DUP7 PUSH1 0x40 MLOAD DUP4 PUSH4 0xFFFFFFFF AND PUSH1 0xE0 SHL DUP2 MSTORE PUSH1 0x4 ADD PUSH2 0x1E7 SWAP3 SWAP2 SWAP1 PUSH2 0x547 JUMP JUMPDEST PUSH0 PUSH1 0x40 MLOAD DUP1 DUP4 SUB DUP2 PUSH0 DUP8 DUP1 EXTCODESIZE ISZERO DUP1 ISZERO PUSH2 0x1FE JUMPI PUSH0 PUSH0 REVERT JUMPDEST POP GAS CALL ISZERO DUP1 ISZERO PUSH2 0x210 JUMPI RETURNDATASIZE PUSH0 PUSH0 RETURNDATACOPY RETURNDATASIZE PUSH0 REVERT JUMPDEST POP POP POP POP DUP3 PUSH20 0xFFFFFFFFFFFFFFFFFFFFFFFFFFFFFFFFFFFFFFFF AND CALLER PUSH20 0xFFFFFFFFFFFFFFFFFFFFFFFFFFFFFFFFFFFFFFFF AND PUSH32 0x56F89973641D19061C3BF2794A1C6BABCEAF236AEF2D5FEA662C1C9406C1C128 DUP5 DUP5 PUSH1 0x40 MLOAD PUSH2 0x273 SWAP3 SWAP2 SWAP1 PUSH2 0x5C8 JUMP JUMPDEST PUSH1 0x40 MLOAD DUP1 SWAP2 SUB SWAP1 LOG3 POP POP POP POP POP JUMP JUMPDEST PUSH32 0x0 DUP2 JUMP JUMPDEST PUSH0 PUSH0 REVERT JUMPDEST PUSH0 PUSH0 REVERT JUMPDEST PUSH0 PUSH20 0xFFFFFFFFFFFFFFFFFFFFFFFFFFFFFFFFFFFFFFFF DUP3 AND SWAP1 POP SWAP2 SWAP1 POP JUMP JUMPDEST PUSH0 PUSH2 0x2D7 DUP3 PUSH2 0x2AE JUMP JUMPDEST SWAP1 POP SWAP2 SWAP1 POP JUMP JUMPDEST PUSH2 0x2E7 DUP2 PUSH2 0x2CD JUMP JUMPDEST DUP2 EQ PUSH2 0x2F1 JUMPI PUSH0 PUSH0 REVERT JUMPDEST POP JUMP JUMPDEST PUSH0 DUP2 CALLDATALOAD SWAP1 POP PUSH2 0x302 DUP2 PUSH2 0x2DE JUMP JUMPDEST SWAP3 SWAP2 POP POP JUMP JUMPDEST PUSH0 DUP2 SWAP1 POP SWAP2 SWAP1 POP JUMP JUMPDEST PUSH2 0x31A DUP2 PUSH2 0x308 JUMP JUMPDEST DUP2 EQ PUSH2 0x324 JUMPI PUSH0 PUSH0 REVERT JUMPDEST POP JUMP JUMPDEST PUSH0 DUP2 CALLDATALOAD SWAP1 POP PUSH2 0x335 DUP2 PUSH2 0x311 JUMP JUMPDEST SWAP3 SWAP2 POP POP JUMP JUMPDEST PUSH0 PUSH0 REVERT JUMPDEST PUSH0 PUSH0 REVERT JUMPDEST PUSH0 PUSH0 REVERT JUMPDEST PUSH0 PUSH0 DUP4 PUSH1 0x1F DUP5 ADD SLT PUSH2 0x35C JUMPI PUSH2 0x35B PUSH2 0x33B JUMP JUMPDEST JUMPDEST DUP3 CALLDATALOAD SWAP1 POP PUSH8 0xFFFFFFFFFFFFFFFF DUP2 GT ISZERO PUSH2 0x379 JUMPI PUSH2 0x378 PUSH2 0x33F JUMP JUMPDEST JUMPDEST PUSH1 0x20 DUP4 ADD SWAP2 POP DUP4 PUSH1 0x1 DUP3 MUL DUP4 ADD GT ISZERO PUSH2 0x395 JUMPI PUSH2 0x394 PUSH2 0x343 JUMP JUMPDEST JUMPDEST SWAP3 POP SWAP3 SWAP1 POP JUMP JUMPDEST PUSH0 PUSH0 PUSH0 PUSH0 PUSH0 PUSH1 0x80 DUP7 DUP9 SUB SLT ISZERO PUSH2 0x3B5 JUMPI PUSH2 0x3B4 PUSH2 0x2A6 JUMP JUMPDEST JUMPDEST PUSH0 PUSH2 0x3C2 DUP9 DUP3 DUP10 ADD PUSH2 0x2F4 JUMP JUMPDEST SWAP6 POP POP PUSH1 0x20 PUSH2 0x3D3 DUP9 DUP3 DUP10 ADD PUSH2 0x327 JUMP JUMPDEST SWAP5 POP POP PUSH1 0x40 PUSH2 0x3E4 DUP9 DUP3 DUP10 ADD PUSH2 0x2F4 JUMP JUMPDEST SWAP4 POP POP PUSH1 0x60 DUP7 ADD CALLDATALOAD PUSH8 0xFFFFFFFFFFFFFFFF DUP2 GT ISZERO PUSH2 0x405 JUMPI PUSH2 0x404 PUSH2 0x2AA JUMP JUMPDEST JUMPDEST PUSH2 0x411 DUP9 DUP3 DUP10 ADD PUSH2 0x347 JUMP JUMPDEST SWAP3 POP SWAP3 POP POP SWAP3 SWAP6 POP SWAP3 SWAP6 SWAP1 SWAP4 POP JUMP JUMPDEST PUSH0 DUP2 SWAP1 POP SWAP2 SWAP1 POP JUMP JUMPDEST PUSH0 PUSH2 0x443 PUSH2 0x43E PUSH2 0x439 DUP5 PUSH2 0x2AE JUMP JUMPDEST PUSH2 0x420 JUMP JUMPDEST PUSH2 0x2AE JUMP JUMPDEST SWAP1 POP SWAP2 SWAP1 POP JUMP JUMPDEST PUSH0 PUSH2 0x454 DUP3 PUSH2 0x429 JUMP JUMPDEST SWAP1 POP SWAP2 SWAP1 POP JUMP JUMPDEST PUSH0 PUSH2 0x465 DUP3 PUSH2 0x44A JUMP JUMPDEST SWAP1 POP SWAP2 SWAP1 POP JUMP JUMPDEST PUSH2 0x475 DUP2 PUSH2 0x45B JUMP JUMPDEST DUP3 MSTORE POP POP JUMP JUMPDEST PUSH0 PUSH1 0x20 DUP3 ADD SWAP1 POP PUSH2 0x48E PUSH0 DUP4 ADD DUP5 PUSH2 0x46C JUMP JUMPDEST SWAP3 SWAP2 POP POP JUMP JUMPDEST PUSH2 0x49D DUP2 PUSH2 0x2CD JUMP JUMPDEST DUP3 MSTORE POP POP JUMP JUMPDEST PUSH2 0x4AC DUP2 PUSH2 0x308 JUMP JUMPDEST DUP3 MSTORE POP POP JUMP JUMPDEST PUSH0 PUSH1 0x60 DUP3 ADD SWAP1 POP PUSH2 0x4C5 PUSH0 DUP4 ADD DUP7 PUSH2 0x494 JUMP JUMPDEST PUSH2 0x4D2 PUSH1 0x20 DUP4 ADD DUP6 PUSH2 0x494 JUMP JUMPDEST PUSH2 0x4DF PUSH1 0x40 DUP4 ADD DUP5 PUSH2 0x4A3 JUMP JUMPDEST SWAP5 SWAP4 POP POP POP POP JUMP JUMPDEST PUSH0 DUP2 ISZERO ISZERO SWAP1 POP SWAP2 SWAP1 POP JUMP JUMPDEST PUSH2 0x4FB DUP2 PUSH2 0x4E7 JUMP JUMPDEST DUP2 EQ PUSH2 0x505 JUMPI PUSH0 PUSH0 REVERT JUMPDEST POP JUMP JUMPDEST PUSH0 DUP2 MLOAD SWAP1 POP PUSH2 0x516 DUP2 PUSH2 0x4F2 JUMP JUMPDEST SWAP3 SWAP2 POP POP JUMP JUMPDEST PUSH0 PUSH1 0x20 DUP3 DUP5 SUB SLT ISZERO PUSH2 0x531 JUMPI PUSH2 0x530 PUSH2 0x2A6 JUMP JUMPDEST JUMPDEST PUSH0 PUSH2 0x53E DUP5 DUP3 DUP6 ADD PUSH2 0x508 JUMP JUMPDEST SWAP2 POP POP SWAP3 SWAP2 POP POP JUMP JUMPDEST PUSH0 PUSH1 0x40 DUP3 ADD SWAP1 POP PUSH2 0x55A PUSH0 DUP4 ADD DUP6 PUSH2 0x494 JUMP JUMPDEST PUSH2 0x567 PUSH1 0x20 DUP4 ADD DUP5 PUSH2 0x4A3 JUMP JUMPDEST SWAP4 SWAP3 POP POP POP JUMP JUMPDEST PUSH0 DUP3 DUP3 MSTORE PUSH1 0x20 DUP3 ADD SWAP1 POP SWAP3 SWAP2 POP POP JUMP JUMPDEST DUP3 DUP2 DUP4 CALLDATACOPY PUSH0 DUP4 DUP4 ADD MSTORE POP POP POP JUMP JUMPDEST PUSH0 PUSH1 0x1F NOT PUSH1 0x1F DUP4 ADD AND SWAP1 POP SWAP2 SWAP1 POP JUMP JUMPDEST PUSH0 PUSH2 0x5A7 DUP4 DUP6 PUSH2 0x56E JUMP JUMPDEST SWAP4 POP PUSH2 0x5B4 DUP4 DUP6 DUP5 PUSH2 0x57E JUMP JUMPDEST PUSH2 0x5BD DUP4 PUSH2 0x58C JUMP JUMPDEST DUP5 ADD SWAP1 POP SWAP4 SWAP3 POP POP POP JUMP JUMPDEST PUSH0 PUSH1 0x20 DUP3 ADD SWAP1 POP DUP2 DUP2 SUB PUSH0 DUP4 ADD MSTORE PUSH2 0x5E1 DUP2 DUP5 DUP7 PUSH2 0x59C JUMP JUMPDEST SWAP1 POP SWAP4 SWAP3 POP POP POP JUMP INVALID LOG2 PUSH5 0x6970667358 0x22 SLT KECCAK256 SWAP6 ADD 0x2E 0xDC SWAP1 CALLDATACOPY CALL 0x2D 0xD4 0x4B PUSH2 0x4A35 SWAP4 SWAP4 RETURNDATASIZE SWAP7 ADDRESS MLOAD PUSH15 0x143347F6D22987C74F324F1F64736F PUSH13 0x634300081C0033000000000000 "},"methodIdentifiers":{"shieldAndPay(address,uint256,address,string)":"5b13b139","unlinkPool()":"98de552e"}}}}}