{
  "_format": "hh3-artifact-1",
  "contractName": "MockUnlinkPool",
  "sourceName": "contracts/mocks/MockUnlinkPool.sol",
  "abi": [
    {
      "inputs": [
        {
          "internalType": "address",
          "name": "token",
          "type": "address"
        },
        {
          "internalType": "address",
          "name": "account",
          "type": "address"
        }
      ],
      "name": "balanceOf",
      "outputs": [
        {
          "internalType": "uint256",
          "name": "",
          "type": "uint256"
        }
      ],
      "stateMutability": "view",
      "type": "function"
    },
    {
      "inputs": [
        {
          "internalType": "address",
          "name": "token",
          "type": "address"
        },
        {
          "internalType": "uint256",
          "name": "amount",
          "type": "uint256"
        }
      ],
      "name": "deposit",
      "outputs": [],
      "stateMutability": "nonpayable",
      "type": "function"
    },
    {
      "inputs": [
        {
          "internalType": "address",
          "name": "",
          "type": "address"
        },
        {
          "internalType": "address",
          "name": "",
          "type": "address"
        }
      ],
      "name": "shieldedBalances",
      "outputs": [
        {
          "internalType": "uint256",
          "name": "",
          "type": "uint256"
        }
      ],
      "stateMutability": "view",
      "type": "function"
    }
  ],
  "bytecode": "0x6080604052348015600e575f5ffd5b506104dd8061001c5f395ff3fe608060405234801561000f575f5ffd5b506004361061003f575f3560e01c806347e7ef24146100435780639508ee731461005f578063f7888aec1461008f575b5f5ffd5b61005d600480360381019061005891906102ff565b6100bf565b005b6100796004803603810190610074919061033d565b6101ce565b604051610086919061038a565b60405180910390f35b6100a960048036038101906100a4919061033d565b6101ed565b6040516100b6919061038a565b60405180910390f35b8173ffffffffffffffffffffffffffffffffffffffff166323b872dd3330846040518463ffffffff1660e01b81526004016100fc939291906103b2565b6020604051808303815f875af1158015610118573d5f5f3e3d5ffd5b505050506040513d601f19601f8201168201806040525081019061013c919061041c565b50805f5f8473ffffffffffffffffffffffffffffffffffffffff1673ffffffffffffffffffffffffffffffffffffffff1681526020019081526020015f205f3373ffffffffffffffffffffffffffffffffffffffff1673ffffffffffffffffffffffffffffffffffffffff1681526020019081526020015f205f8282546101c39190610474565b925050819055505050565b5f602052815f5260405f20602052805f5260405f205f91509150505481565b5f5f5f8473ffffffffffffffffffffffffffffffffffffffff1673ffffffffffffffffffffffffffffffffffffffff1681526020019081526020015f205f8373ffffffffffffffffffffffffffffffffffffffff1673ffffffffffffffffffffffffffffffffffffffff1681526020019081526020015f2054905092915050565b5f5ffd5b5f73ffffffffffffffffffffffffffffffffffffffff82169050919050565b5f61029b82610272565b9050919050565b6102ab81610291565b81146102b5575f5ffd5b50565b5f813590506102c6816102a2565b92915050565b5f819050919050565b6102de816102cc565b81146102e8575f5ffd5b50565b5f813590506102f9816102d5565b92915050565b5f5f604083850312156103155761031461026e565b5b5f610322858286016102b8565b9250506020610333858286016102eb565b9150509250929050565b5f5f604083850312156103535761035261026e565b5b5f610360858286016102b8565b9250506020610371858286016102b8565b9150509250929050565b610384816102cc565b82525050565b5f60208201905061039d5f83018461037b565b92915050565b6103ac81610291565b82525050565b5f6060820190506103c55f8301866103a3565b6103d260208301856103a3565b6103df604083018461037b565b949350505050565b5f8115159050919050565b6103fb816103e7565b8114610405575f5ffd5b50565b5f81519050610416816103f2565b92915050565b5f602082840312156104315761043061026e565b5b5f61043e84828501610408565b91505092915050565b7f4e487b71000000000000000000000000000000000000000000000000000000005f52601160045260245ffd5b5f61047e826102cc565b9150610489836102cc565b92508282019050808211156104a1576104a0610447565b5b9291505056fea2646970667358221220db80388a3ed725b8b9aacd675f000e0436edf2d7c46def7d144c31fb9d76990564736f6c634300081c0033",
  "linkReferences": {},
  "deployedLinkReferences": {},
  "immutableReferences": {},
  "inputSourceName": "project/contracts/mocks/MockUnlinkPool.sol",
  "buildInfoId": "solc-0_8_28-1c90508a2e885282d28c566bfacc3a9093622cf4"
}