{
  "_format": "hh3-artifact-1",
  "contractName": "Web3VenmoShield",
  "sourceName": "contracts/Web3VenmoShield.sol",
  "abi": [
    {
      "inputs": [
        {
          "internalType": "address",
          "name": "_unlinkPool",
          "type": "address"
        }
      ],
      "stateMutability": "nonpayable",
      "type": "constructor"
    },
    {
      "anonymous": false,
      "inputs": [
        {
          "indexed": true,
          "internalType": "address",
          "name": "user",
          "type": "address"
        },
        {
          "indexed": true,
          "internalType": "address",
          "name": "token",
          "type": "address"
        },
        {
          "indexed": false,
          "internalType": "uint256",
          "name": "amount",
          "type": "uint256"
        }
      ],
      "name": "Deposited",
      "type": "event"
    },
    {
      "anonymous": false,
      "inputs": [
        {
          "indexed": true,
          "internalType": "address",
          "name": "previousOwner",
          "type": "address"
        },
        {
          "indexed": true,
          "internalType": "address",
          "name": "newOwner",
          "type": "address"
        }
      ],
      "name": "OwnerTransferred",
      "type": "event"
    },
    {
      "anonymous": false,
      "inputs": [
        {
          "indexed": true,
          "internalType": "address",
          "name": "sender",
          "type": "address"
        },
        {
          "indexed": true,
          "internalType": "address",
          "name": "receiver",
          "type": "address"
        },
        {
          "indexed": false,
          "internalType": "string",
          "name": "memo",
          "type": "string"
        }
      ],
      "name": "SocialPayment",
      "type": "event"
    },
    {
      "anonymous": false,
      "inputs": [
        {
          "indexed": true,
          "internalType": "address",
          "name": "user",
          "type": "address"
        },
        {
          "indexed": true,
          "internalType": "address",
          "name": "token",
          "type": "address"
        },
        {
          "indexed": true,
          "internalType": "address",
          "name": "recipient",
          "type": "address"
        },
        {
          "indexed": false,
          "internalType": "uint256",
          "name": "amount",
          "type": "uint256"
        }
      ],
      "name": "Withdrawn",
      "type": "event"
    },
    {
      "inputs": [
        {
          "internalType": "address",
          "name": "token",
          "type": "address"
        },
        {
          "internalType": "address",
          "name": "user",
          "type": "address"
        }
      ],
      "name": "balanceOf",
      "outputs": [
        {
          "internalType": "uint256",
          "name": "",
          "type": "uint256"
        }
      ],
      "stateMutability": "view",
      "type": "function"
    },
    {
      "inputs": [],
      "name": "owner",
      "outputs": [
        {
          "internalType": "address",
          "name": "",
          "type": "address"
        }
      ],
      "stateMutability": "view",
      "type": "function"
    },
    {
      "inputs": [
        {
          "internalType": "address",
          "name": "token",
          "type": "address"
        },
        {
          "internalType": "uint256",
          "name": "amount",
          "type": "uint256"
        },
        {
          "internalType": "address",
          "name": "receiver",
          "type": "address"
        },
        {
          "internalType": "string",
          "name": "memo",
          "type": "string"
        }
      ],
      "name": "shieldAndPay",
      "outputs": [],
      "stateMutability": "nonpayable",
      "type": "function"
    },
    {
      "inputs": [
        {
          "internalType": "address",
          "name": "from",
          "type": "address"
        },
        {
          "internalType": "address",
          "name": "token",
          "type": "address"
        },
        {
          "internalType": "uint256",
          "name": "amount",
          "type": "uint256"
        },
        {
          "internalType": "address",
          "name": "to",
          "type": "address"
        },
        {
          "internalType": "string",
          "name": "memo",
          "type": "string"
        }
      ],
      "name": "shieldedTransfer",
      "outputs": [],
      "stateMutability": "nonpayable",
      "type": "function"
    },
    {
      "inputs": [
        {
          "internalType": "address",
          "name": "token",
          "type": "address"
        }
      ],
      "name": "totalShielded",
      "outputs": [
        {
          "internalType": "uint256",
          "name": "",
          "type": "uint256"
        }
      ],
      "stateMutability": "view",
      "type": "function"
    },
    {
      "inputs": [
        {
          "internalType": "address",
          "name": "newOwner",
          "type": "address"
        }
      ],
      "name": "transferOwnership",
      "outputs": [],
      "stateMutability": "nonpayable",
      "type": "function"
    },
    {
      "inputs": [],
      "name": "unlinkPool",
      "outputs": [
        {
          "internalType": "contract IUnlinkPool",
          "name": "",
          "type": "address"
        }
      ],
      "stateMutability": "view",
      "type": "function"
    },
    {
      "inputs": [
        {
          "internalType": "address",
          "name": "user",
          "type": "address"
        },
        {
          "internalType": "address",
          "name": "token",
          "type": "address"
        },
        {
          "internalType": "uint256",
          "name": "amount",
          "type": "uint256"
        },
        {
          "internalType": "address",
          "name": "receiver",
          "type": "address"
        },
        {
          "internalType": "string",
          "name": "memo",
          "type": "string"
        }
      ],
      "name": "unshieldAndPay",
      "outputs": [],
      "stateMutability": "nonpayable",
      "type": "function"
    },
    {
      "inputs": [
        {
          "internalType": "address",
          "name": "",
          "type": "address"
        },
        {
          "internalType": "address",
          "name": "",
          "type": "address"
        }
      ],
      "name": "userBalances",
      "outputs": [
        {
          "internalType": "uint256",
          "name": "",
          "type": "uint256"
        }
      ],
      "stateMutability": "view",
      "type": "function"
    }
  ],
  "bytecode": "0x60a060405234801561000f575f5ffd5b50604051610c07380380610c0783398101604081905261002e91610050565b6001600160a01b03166080525f80546001600160a01b0319163317905561007d565b5f60208284031215610060575f5ffd5b81516001600160a01b0381168114610076575f5ffd5b9392505050565b608051610b576100b05f395f818160fe01528181610247015281816102e70152818161043001526107d80152610b575ff3fe608060405234801561000f575f5ffd5b5060043610610090575f3560e01c8063adb5198011610063578063adb5198014610120578063ceb217151461014a578063f2fde38b1461015d578063f7888aec14610170578063ff2f1891146101a8575f5ffd5b80635b13b139146100945780636d7f2685146100a95780638da5cb5b146100cf57806398de552e146100f9575b5f5ffd5b6100a76100a236600461092b565b6101bb565b005b6100bc6100b7366004610995565b610409565b6040519081526020015b60405180910390f35b5f546100e1906001600160a01b031681565b6040516001600160a01b0390911681526020016100c6565b6100e17f000000000000000000000000000000000000000000000000000000000000000081565b6100bc61012e3660046109b5565b600160209081525f928352604080842090915290825290205481565b6100a76101583660046109e6565b6104a1565b6100a761016b366004610995565b61060b565b6100bc61017e3660046109b5565b6001600160a01b039182165f90815260016020908152604080832093909416825291909152205490565b6100a76101b63660046109e6565b6106d2565b6040516323b872dd60e01b8152336004820152306024820152604481018590526001600160a01b038616906323b872dd906064016020604051808303815f875af115801561020b573d5f5f3e3d5ffd5b505050506040513d601f19601f8201168201806040525081019061022f9190610a60565b5060405163095ea7b360e01b81526001600160a01b037f0000000000000000000000000000000000000000000000000000000000000000811660048301526024820186905286169063095ea7b3906044016020604051808303815f875af115801561029c573d5f5f3e3d5ffd5b505050506040513d601f19601f820116820180604052508101906102c09190610a60565b506040516311f9fbc960e21b81526001600160a01b038681166004830152602482018690527f000000000000000000000000000000000000000000000000000000000000000016906347e7ef24906044015f604051808303815f87803b158015610328575f5ffd5b505af115801561033a573d5f5f3e3d5ffd5b505050506001600160a01b0385165f90815260016020908152604080832033845290915281208054869290610370908490610a93565b90915550506040518481526001600160a01b0386169033907f8752a472e571a816aea92eec8dae9baf628e840f4929fbcc2d155e6233ff68a79060200160405180910390a3826001600160a01b0316336001600160a01b03167f56f89973641d19061c3bf2794a1c6babceaf236aef2d5fea662c1c9406c1c12884846040516103fa929190610aa6565b60405180910390a35050505050565b604051633de222bb60e21b81526001600160a01b0382811660048301523060248301525f917f00000000000000000000000000000000000000000000000000000000000000009091169063f7888aec90604401602060405180830381865afa158015610477573d5f5f3e3d5ffd5b505050506040513d601f19601f8201168201806040525081019061049b9190610ad4565b92915050565b5f546001600160a01b031633146104d35760405162461bcd60e51b81526004016104ca90610aeb565b60405180910390fd5b6001600160a01b038086165f908152600160209081526040808320938a168352929052205484111561053e5760405162461bcd60e51b8152602060048201526014602482015273496e73756666696369656e742062616c616e636560601b60448201526064016104ca565b6001600160a01b038086165f908152600160209081526040808320938a1683529290529081208054869290610574908490610b0e565b90915550506001600160a01b038086165f908152600160209081526040808320938716835292905290812080548692906105af908490610a93565b92505081905550826001600160a01b0316866001600160a01b03167f56f89973641d19061c3bf2794a1c6babceaf236aef2d5fea662c1c9406c1c12884846040516105fb929190610aa6565b60405180910390a3505050505050565b5f546001600160a01b031633146106345760405162461bcd60e51b81526004016104ca90610aeb565b6001600160a01b0381166106795760405162461bcd60e51b815260206004820152600c60248201526b5a65726f206164647265737360a01b60448201526064016104ca565b5f80546040516001600160a01b03808516939216917f8934ce4adea8d9ce0d714d2c22b86790e41b7731c84b926fbbdc1d40ff6533c991a35f80546001600160a01b0319166001600160a01b0392909216919091179055565b5f546001600160a01b031633146106fb5760405162461bcd60e51b81526004016104ca90610aeb565b6001600160a01b038086165f908152600160209081526040808320938a168352929052205484111561076f5760405162461bcd60e51b815260206004820152601960248201527f496e73756666696369656e7420757365722062616c616e63650000000000000060448201526064016104ca565b6001600160a01b038086165f908152600160209081526040808320938a16835292905290812080548692906107a5908490610b0e565b9091555050604051631a4ca37b60e21b81526001600160a01b0386811660048301526024820186905284811660448301527f000000000000000000000000000000000000000000000000000000000000000016906369328dec906064015f604051808303815f87803b158015610819575f5ffd5b505af115801561082b573d5f5f3e3d5ffd5b50505050826001600160a01b0316856001600160a01b0316876001600160a01b03167fa4195c37c2947bbe89165f03e320b6903116f0b10d8cfdb522330f7ce6f9fa248760405161087e91815260200190565b60405180910390a4826001600160a01b0316866001600160a01b03167f56f89973641d19061c3bf2794a1c6babceaf236aef2d5fea662c1c9406c1c12884846040516105fb929190610aa6565b80356001600160a01b03811681146108e1575f5ffd5b919050565b5f5f83601f8401126108f6575f5ffd5b50813567ffffffffffffffff81111561090d575f5ffd5b602083019150836020828501011115610924575f5ffd5b9250929050565b5f5f5f5f5f6080868803121561093f575f5ffd5b610948866108cb565b94506020860135935061095d604087016108cb565b9250606086013567ffffffffffffffff811115610978575f5ffd5b610984888289016108e6565b969995985093965092949392505050565b5f602082840312156109a5575f5ffd5b6109ae826108cb565b9392505050565b5f5f604083850312156109c6575f5ffd5b6109cf836108cb565b91506109dd602084016108cb565b90509250929050565b5f5f5f5f5f5f60a087890312156109fb575f5ffd5b610a04876108cb565b9550610a12602088016108cb565b945060408701359350610a27606088016108cb565b9250608087013567ffffffffffffffff811115610a42575f5ffd5b610a4e89828a016108e6565b979a9699509497509295939492505050565b5f60208284031215610a70575f5ffd5b815180151581146109ae575f5ffd5b634e487b7160e01b5f52601160045260245ffd5b8082018082111561049b5761049b610a7f565b60208152816020820152818360408301375f818301604090810191909152601f909201601f19160101919050565b5f60208284031215610ae4575f5ffd5b5051919050565b6020808252600990820152682737ba1037bbb732b960b91b604082015260600190565b8181038181111561049b5761049b610a7f56fea2646970667358221220a2805e9e73fa939fdb02a1352b201848f012a3c2f8e714cc1fae561afcf87d0664736f6c634300081c0033",
  "linkReferences": {},
  "deployedLinkReferences": {},
  "immutableReferences": {
    "115": [
      {
        "length": 32,
        "start": 254
      },
      {
        "length": 32,
        "start": 583
      },
      {
        "length": 32,
        "start": 743
      },
      {
        "length": 32,
        "start": 1072
      },
      {
        "length": 32,
        "start": 2008
      }
    ]
  },
  "inputSourceName": "project/contracts/Web3VenmoShield.sol",
  "buildInfoId": "solc-0_8_28-016b07ba7aef59e409ab4d10ba2bc40edd539bde"
}